:020000040000FA
:100000004DEF1AF0806B000C056ED8CF06F0E0CFF4
:1000100007F00001E9CF0DF0EACF08F0E1CF09F0D9
:10002000E2CF0AF0D9CF0BF0DACF0CF0F3CF14F017
:10003000F4CF15F0FACF16F000C00FF001C010F0A9
:1000400002C011F003C012F004C013F0F2AA2CEFAA
:1000500000F0F2B479EF00F00FC000F010C001F032
:1000600011C002F012C003F013C004F00E8E0DC0D8
:10007000E9FF08C0EAFF09C0E1FF0AC0E2FF0BC0C8
:10008000D9FF0CC0DAFF14C0F3FF15C0F4FF16C08F
:10009000FAFF055007C0E0FF06C0D8FF1000F2CFFE
:1000A0000EF0F29EF76AB80FF66E000EF722090006
:1000B000F5500EBEF28E1200286E65745F736E648A
:1000C000292045310D0A0000F2CF0EF0F29EF76AAA
:1000D000E20FF66E000EF7220900F5500EBEF28E0A
:1000E0001200286E65745F736E64292045320D0A14
:1000F0000000D650D7CF03F03C0F0601E86F000E8A
:10010000D720D76EE8C6D6FF0001812B8151640845
:1001100007E1816B822B802B80510A0801E2FF00EE
:10012000F2942CEF00F06EDFD190C70ED56EF28AFC
:10013000D76A3C0ED66EC00EF212C150C00B0D092C
:10014000C16EC090C092C094C08EC280B56A070EC6
:10015000B46E92500400270E006E002EFED70000F1
:10016000B450A19C6AEF1AF06CEF1AF06EEF1AF01F
:1001700096948D94BDEF00F0FBD770EF1AF0000E4F
:10018000016EE0EF00F0830E0601CA25E96E000E55
:10019000CB21EA6ECCC6EFFF010E016E0001000C10
:1001A0000601796B786B7951050818E303E1785102
:1001B000DB0814E379C67BF678C67AF60001DFD750
:1001C00001C07AF679C6CBF678C6CAF601C0CCF67D
:1001D000DADF0601782BD8B4792BE5D7000172EF6E
:1001E0001AF0830E0601E625E96E000EE721EA6E9D
:1001F000EFCF01F00001000C7BC67DF67AC67CF6DD
:1002000006017C5303E17D5301E1E1D07DC6E7F6B1
:100210007CC6E6F60001E5DF06018B6B01C08AF6BD
:1002200001C08DF68C6B010E7C258E6F000E7D213A
:100230008F6FE76F8EC6E6F60001D3DF06018C51A3
:1002400001107E6F8DC67FF67E5303E17F5301E17F
:10025000BED07E2D03D07F53D8B4B4D0020E7C25FF
:100260008A6F000E7D218B6FE76F8AC6E6F600016C
:10027000B8DF06018C6B01C08BF601C08EF68D6B6A
:10028000030E7C258F6F000E7D21906FE76F8FC668
:10029000E6F60001A6DF06018D510110806F8EC6C3
:1002A00081F6040E7C258A6F000E7D218B6FE76F2F
:1002B0008AC6E6F6000195DF0601836B01C082F66F
:1002C000050E7C258A6F000E7D218B6FE76F8AC635
:1002D000E6F6000186DF06018C6B01C08BF601C0DB
:1002E0008EF68D6B060E7C258F6F000E7D21906F34
:1002F000E76F8FC6E6F6000174DF06018D5101102D
:10030000846F8EC685F682517F0B876F875339E1E4
:100310007FC6E7F67EC6E6F6000163DF01C089F618
:10032000060189532DE0D8905C34036A200FE96EF2
:10033000000E0320EA6E85C6ECFFED5284C6EFFF87
:100340005C2A81C6E7F680C6E6F600014ADF01C0F6
:1003500088F6010E060188258A6F81C6CBF680C615
:10036000CAF6CC6F00010FDF010E0601895D8A6FAE
:100370007FC6CBF67EC6CAF6CC6F000104DF06014D
:1003800021D0866B8751865D1DE2865180258A6F5C
:10039000000E81218B6F86517E258C6F000E7F2190
:1003A0008D6FE76F8CC6E6F600011BDF01C08DF68E
:1003B0008BC6CBF68AC6CAF601C0CCF6E4DE0601CF
:1003C000862BE0D7070E7C27000E7D231FD7000168
:1003D00097EF1AF00601786B5D50785D21E2D890B6
:1003E0007835036A200F016E000E032203C07AF6EF
:1003F000D8907835036A3E0FE96E000E0320EA6E4E
:10040000ECCF03F0ED52EFCF7BF67AC6EAFF01C0E6
:10041000E9FF03C0ECFFED527BC6EFFF782BDCD782
:100420005DC05CF05D6A0001A3EF1AF0230E0601C7
:10043000BA25E96E000EBB21EA6EEF6A000E016E6E
:1004400000010BEF11F00601BA51BC03F3CF01F02C
:10045000F4CF00F0BD03F3500026BB51BC03F350B2
:100460000020026E000119EF11F0230E0601CC25C9
:10047000E96E000ECD21EA6EEF50220803E2000E75
:10048000016E18D0230ECC25E96E000ECD21EA6E48
:10049000036AEF50CC25E96ECD510320EA6ECEC63B
:1004A000EFFF230ECC25E96E000ECD21EA6EEF2A78
:1004B000010E016E0001000C230E0601D425E96E29
:1004C000000ED521EA6EEF5203E1000E016E20D03E
:1004D000230ED425E96E000ED521EA6EEF06D7C6AD
:1004E00003F0230ED425E96E000ED521EA6E036ACF
:1004F000EF50D425E96ED5510320EA6EEFCFDBF63D
:10050000D7C6EAFFD6C6E9FFDBC6EFFF010E016ED4
:100510000001000C010E0601D225D56F000ED3217B
:10052000D66FD6C6EAFFD5C6E9FFD890EF3602E20D
:10053000D49101D0D481D2C6D5F6D3C6D6F6D4B1E3
:1005400002D0D89001D0D880D6C6EAFFD5C6E9FF40
:10055000EF3602E2D49101D0D481010ED225D56FBD
:10056000000ED321D66FD4B102D0D89001D0D8805C
:10057000D6C6EAFFD5C6E9FFED32000155EF03F01C
:100580000601CFC6E9FFD0C6EAFFEF6A010ECF250C
:10059000E96E000ED021EA6EEF6A020ECF25E96EF9
:1005A000000ED021EA6EEF6A030ECF25E96E000E31
:1005B000D021EA6EEF6AD151020A000105E0030A78
:1005C00012E0020A2FE071D0CFC6D2F6D0C6D3F621
:1005D000CEC6D5F6CDC6D4F6D0C6D7F6CFC6D6F69B
:1005E00000016ADF62D0CFC6D2F6D0C6D3F6CEC63F
:1005F000D5F6CDC6D4F6D0C6D7F6CFC6D6F600010E
:100600005BDF010E0601CF25D26F000ED021D36F24
:10061000CEC6D5F6CDC6D4F6D76FD2C6D6F6000173
:100620004BDF43D0CFC6D2F6D0C6D3F6CEC6D5F672
:10063000CDC6D4F6D0C6D7F6CFC6D6F600013CDF7D
:10064000010E0601CF25D26F000ED021D36FCEC68A
:10065000D5F6CDC6D4F6D76FD2C6D6F600012CDFBC
:10066000020E0601CF25D26F000ED021D36FCEC669
:10067000D5F6CDC6D4F6D76FD2C6D6F600011CDFAC
:10068000030E0601CF25D26F000ED021D36FCEC648
:10069000D5F6CDC6D4F6D76FD2C6D6F600010CDF9C
:1006A000D0C6D3F6CFC6D2F635D7000CB60E006E44
:1006B000036A026A016A0601D651D711D811D9110D
:1006C00002E1006A0DD0D89001BE09D0D637D737E5
:1006D000D837D937033602360136002EF4D7019EBB
:1006E0000001C1EF03F00601D651B608D66F036AC8
:1006F000D7C6DAF6D78FD890D733D833D933033269
:10070000023201320032D62FF6D7DAAF0BD0001EFC
:10071000011E021E031E002AD8B4012AD8B4022AE0
:10072000D8B4032A0001F3EF03F00601CF51130AF6
:10073000000105E0220A35E0230A65E089D0CDC634
:10074000D0F6CEC6D1F6CDC6D2F6CEC6D3F6CDC63D
:10075000D4F6CEC6D5F6CDC6E9FFCEC6EAFFEFCFBA
:1007600000F0ECCF01F0ECCF02F0ECCF03F003C0CF
:10077000D9F602C0D8F601C0D7F600C0D6F60001FF
:1007800095D7D3C6EAFFD2C6E9FF00C0EFFF01C08C
:10079000ECFF02C0ECFF03C0ECFF030E016E5BD068
:1007A00057D0CDC6D0F6CEC6D1F6CDC6D2F6CEC67F
:1007B000D3F6CDC6D4F6CEC6D5F6CDC6E9FFCEC6A5
:1007C000EAFFEFCF00F0ECCF01F0ECCF02F0ECCF7E
:1007D00003F003C0D9F602C0D8F601C0D7F600C0B6
:1007E000D6F6000180D7D3C6EAFFD2C6E9FF00C023
:1007F000EFFF01C0ECFF02C0ECFF03C0ECFF010EF5
:10080000016E29D025D00601CDC601F0CEC603F079
:10081000CDC6E9FFCEC6EAFFEFCFD6F6ECCFD7F6CE
:10082000ECCFD8F6ECCFD9F6016A026A036ACEC6DD
:10083000EAFFCDC6E9FFD6C6EFFF01C0ECFF02C05C
:10084000ECFF03C0ECFF020E016E000104D000D0EB
:100850000601CFC601F00001000C800ED8A202D024
:100860000601D11B0601D66BD76BCDC6D5F6D1518B
:10087000D51BCC51D8B4DFD0D46F006ED051D8B4D2
:10088000E3D0D45FD8B483D03EE3D1C6DAF6DA8FB2
:10089000D2C6D9F6D3C6D8F6D76BD890DA33D933C7
:1008A000D833D733D42FF8D7D5AF03D0D681E0D003
:1008B000D691D491D689060EEA6ECF0EE96EEBD0B2
:1008C000D699D5BF0AD0D4A113D0DA33D933D833CF
:1008D000D733002AD8B4C7D00BD0DABF0CD0D89009
:1008E000D737D837D937DA370006D8B4BCD0F5D7E0
:1008F000D68D6DD0D69DCDC6D5F6CDAF02D0DA8FD0
:10090000ABD0DA9FA9D0D0C6D4F6D0C600F0CC5177
:10091000D45FCDC6DAF6DA8FCEC6D9F6CFC6D8F612
:10092000D76BD890DA33D933D833D733D42FF8D71D
:10093000D5AF03D0D6839CD0D693D491D68B060E58
:10094000EA6ED30EE96EA7D0D69BD5BF0AD0D4A14C
:1009500013D0DA33D933D833D733002AD8B483D07D
:100960000BD0DABF0CD0D890D737D837D937DA3791
:100970000006D8B478D0F5D7D68F29D0D69FD1C667
:10098000D5F6D1AF02D0DA8F67D0DA9F65D0D1C665
:10099000DAF6DA8FD2C6D9F6D3C6D8F6D5AF04D0F8
:1009A000DA9FD68565D0D695D76BD491060EEA6EC0
:1009B000CF0EE96E70D0D5BF1CD0CDC6D5F6D4A170
:1009C00006D0DA33D933D833D733002A4CE0D7AF47
:1009D0000BD0D82B09E1D92B07E1DA2B05E1DA336B
:1009E000D933D833002A3FE0D6BD84D7D6BFC6D787
:1009F0001CD0800EDA1BDAAF04D03AD0D1C6D5F6BF
:100A00000AD0CDC6D5F6DA5306E1D95304E1D8535E
:100A100002E1006A21D0DABF08D0D890D737D837A2
:100A2000D937DA37002EF7D71ED0D5AF02D0DA8FFC
:100A300013D0DA9F11D0D0C600F0D1C6DAF6D2C6F4
:100A4000D9F6D3C6D8F608D0CCC600F0CDC6DAF6B3
:100A5000CEC6D9F6CFC6D8F6DAC601F0D9C602F0AE
:100A6000D8C603F034D0006A016A026A036A2FD044
:100A7000D76BD81FD91FDA1FD71FD72B05E1D82B6B
:100A800003E1D92B01E1DA2BD6B112D7D6B354D773
:100A9000D6B589D7B3D7EF50D82705E3D92B03E1D3
:100AA000DA2BD8B4D481ED52EF50D92703E3DA2BF7
:100AB000D8B4D481ED52EF50EFBE01D0800ADA27CE
:100AC000D8B0D481D6B9FCD6D6BB3ED774D70001F6
:100AD000000C0601CC51D8B471D0006ED051D8B4FE
:100AE0006DD0002604E3810E002668E204D07F0E5C
:100AF000005E64E363E0CDC6D4F6D151D41BCD8F44
:100B0000D18FCF51D303F4CFD6F6CE51D203F4CF49
:100B100003F0F3CFD5F6D303F350D627F450D52303
:100B2000000E0322CF51D203F350D627F450D52321
:100B3000000E026A03220222CD51D303F350D527BF
:100B4000F4500322000E0222CD51D203F3500326AB
:100B5000F4500222000E016A0122CF51D103F3505A
:100B6000D527F4500322000E02220122CE51D103D8
:100B7000F3500326F4500222000E0122CD51D1037E
:100B8000F3500226F4500122002A01BE05D0D537C9
:100B90000336023601360006000ED5AF0AD0032A0E
:100BA00002220122015005E1025003E1035001E15C
:100BB000002AD4BF018ED4AF019E04D0006A016A1E
:100BC000026A036A000125EF08F00601CC51D8B48F
:100BD000A5D0D86FD051D8B4A1D0D85F05E37F0E8F
:100BE000D827D8B09BD006D0810ED85FD8A096D099
:100BF000D8B494D0D8C600F0016A026A036AD76BF1
:100C0000CDC6D6F6D68FCEC6D5F6CFC6D4F6190E3B
:100C1000D86FD351D45F0DE2010ED55F0AE2D65FE3
:100C200008E2D75F06E2D72BD62BD52BD351D4279A
:100C300028D0D251D55F12E2010ED65F0FE2D75F06
:100C40000DE2D72BD62BD251D527D351D42719E378
:100C5000D52B17E1D62B15E1D72B13D0D151800915
:100C6000D65F0EE2010ED75F0BE2D72BD151800980
:100C7000D627D251D527E9E3D62BE7E1D72BE5D705
:100C80000380D82F01D00BD0D890D437D537D637A2
:100C9000D737D890033602360136D937BAD7D9A11B
:100CA00006D0D890013202320332D93302D0000686
:100CB00035E0D9BF1ED0D890D437D537D637D737FF
:100CC000D351D45F07E2010ED55F04E2D65F02E2A2
:100CD000D75F1AE3D251D55F05E2010ED65F02E27B
:100CE000D75F12E3D1518009D65F03E2010ED75FCF
:100CF0000BE3032A09E1022A07E1012A05E1002AA0
:100D00000DE0013202320332CDC6D8F6D151D81BE4
:100D1000D8AF02D0018E06D0019E04D0006A016ACD
:100D2000026A036A00013FEF08F0CDC6D4F606015F
:100D3000D151D41BD4AF05D0D894D890CDBFD88092
:100D40002FD0CDC6D4F6D0C6D5F6CC51D55F06E0AF
:100D5000D4AF26D0D850010AD86E22D0D1C6D5F64D
:100D6000CD51D55F06E0D4AF1BD0D850010AD86E64
:100D700017D0D2C6D5F6CE51D55F06E0D4AF10D08D
:100D8000D850010AD86E0CD0D3C6D5F6CF51D55F56
:100D900006E0D4AF05D0D850010AD86E01D0D89063
:100DA00000015DEF08F00601D46BD56B010ED66F24
:100DB000DA6AD96A060ED96FCC0ED86F060EEA6EC3
:100DC000D00EE96ED9C6E2FFD8C6E1FFD6C6D7F687
:100DD000D890E550EE02F350D423F450D523D72F0A
:100DE000F7D7D4C6DEFFD5C6D4F6D56BD8B0D52B91
:100DF000D82BD8B4D92BD62BD6510508DFE100016A
:100E0000A4EF08F0006A016A026A036A0601D46B63
:100E1000D56BD66BD76BD351D211D111D0112CE039
:100E2000200ED86FD890CC37CD37CE37CF37D437C8
:100E3000D537D637D737D351D75D08E1D251D65DF4
:100E400005E1D151D55D02E1D051D45D0FE3D05120
:100E5000D45FD151D8A0D13DD55FD251D8A0D23DD9
:100E6000D65FD351D8A0D33DD75FD88000360136A6
:100E700002360336D82FD6D7060EEA6ED40EE96EA8
:100E80000001000C010E0601CC25CF6F000ECD2114
:100E9000D06FD0C6EAFFCFC6E9FFD890EF3602E2A6
:100EA000CE9101D0CE81CCC6CFF6CDC6D0F6CEB194
:100EB00002D0D89001D0D880D0C6EAFFCFC6E9FFD3
:100EC000ED3202E2CE9101D0CE81010ECC25CF6F62
:100ED000000ECD21D06FCEB102D0D89001D0D880F5
:100EE000D0C6EAFFCFC6E9FFED320001F3EF08F00C
:100EF0000601BD510F0BCC6FBBC6CEF6BAC6CDF600
:100F0000060ED06FC30ECF6FCCC6D1F60001C0EC79
:100F100002F00601BD39CC6F0F0ECC17BBC6CEF662
:100F2000BAC6CDF6060ED06FBF0ECF6FCCC6D1F6C7
:100F30000001C0EC02F00601BD510F0BCB6FBC539A
:100F400024E0006ABCBF0080005010E0BC517F0B61
:100F5000CC6F060ECE6FBF0ECD6FCCC6CFF60001A4
:100F600095EC03F001C0CBF60FD00601BC517F0B0E
:100F7000CC6F060ECE6FC30ECD6FCCC6CFF6000180
:100F800095EC03F001C0CBF60601BD39006E0F0EE3
:100F900000160050030805E0BD510F0B0308D8A44C
:100FA00097D0BE51020A000109E0010A22E0070AB7
:100FB0003BE0010A53E0210A6BE088D0D892C2C618
:100FC000CFF6C1C6CEF6C0C6CDF6BFC6CCF6C6C6F5
:100FD000D3F6C5C6D2F6C4C6D1F6C3C6D0F63DDC3C
:100FE00003C0CAF602C0C9F601C0C8F600C0C7F601
:100FF0006DD0D882C2C6CFF6C1C6CEF6C0C6CDF679
:10100000BFC6CCF6C6C6D3F6C5C6D2F6C4C6D1F6A0
:10101000C3C6D0F622DC03C0CAF602C0C9F601C0BE
:10102000C8F600C0C7F652D0C2C6CFF6C1C6CEF6CB
:10103000C0C6CDF6BFC6CCF6C6C6D3F6C5C6D2F678
:10104000C4C6D1F6C3C6D0F644D503C0CAF602C0A2
:10105000C9F601C0C8F600C0C7F638D0C2C6CFF680
:10106000C1C6CEF6C0C6CDF6BFC6CCF6C6C6D3F650
:10107000C5C6D2F6C4C6D1F6C3C6D0F6A6D503C03F
:10108000CAF602C0C9F601C0C8F600C0C7F61ED035
:10109000020E0601CB6FC6C6CFF6C5C6CEF6C4C6D5
:1010A000CDF6C3C6CCF6C2C6D3F6C1C6D2F6C0C60C
:1010B000D1F6BFC6D0F6000138D60601C76BD8B04E
:1010C000C72BC96BCA6B000E000100D07BD0060194
:1010D000BE51020A000109E0010A16E0070A23E0F6
:1010E000010A3BE0210A53E06DD00601C351BF2540
:1010F000C76FC451C021C86FC551C121C96FC65146
:10110000C221CA6F00015ED00601C351BF5DC76F27
:10111000C451C059C86FC551C159C96FC651C259D0
:10112000CA6F00014FD0C2C6CFF6C1C6CEF6C0C648
:10113000CDF6BFC6CCF6C6C6D3F6C5C6D2F6C4C673
:10114000D1F6C3C6D0F62FD603C0CAF602C0C9F680
:1011500001C0C8F600C0C7F635D0C2C6CFF6C1C6BA
:10116000CEF6C0C6CDF6BFC6CCF6C6C6D3F6C5C64B
:10117000D2F6C4C6D1F6C3C6D0F644DE03C0CAF662
:1011800002C0C9F601C0C8F600C0C7F61BD0020EE7
:101190000601CB6FC651C25D0CE30DE1C551C15DC7
:1011A00008E309E1C451C05D04E305E1BF51C35D3B
:1011B00002E3000E01D0010ECA6BC96BC86BC76F8A
:1011C000000100D00601CB51030A000105E0020A2C
:1011D0002BE0030A3AE042D0060E0601CD6FC70E9F
:1011E000CC6F00014FD6BBC6CDF6BAC6CCF6CAC688
:1011F000CEF635EC02F0BBC6CDF6BAC6CCF6C9C603
:10120000CEF635EC02F0BBC6CDF6BAC6CCF6C8C6F3
:10121000CEF635EC02F0BBC6CDF6BAC6CCF6C7C6E4
:10122000CEF635EC02F01AD0BBC6CDF6BAC6CCF677
:10123000C9C6CEF635EC02F0BBC6CDF6BAC6CCF6C2
:10124000CAC6CEF635EC02F009D0BBC6CDF6BAC69A
:10125000CCF6C7C6CEF635EC02F000D0000C8E0EF0
:10126000006E0601BA51005EBBC602F0BCC601F0BA
:10127000028E005209E0D890025202E1015204E0CD
:1012800002320132002EF7D7BBAF05D0011E021E7D
:10129000012AD8B4022A0001A8EF15F0BDC6E7F66E
:1012A000BCC6E6F6F1EC00F001C0C0F60601C05382
:1012B0004FE0010EC05DC16FBDC6CBF6BCC6CAF61D
:1012C000CC6F0001C3EC00F0010E0601BC25C16F1C
:1012D000000EBD21C26FE76FC1C6E6F60001F1EC5A
:1012E00000F001C0BFF60601BE6BBF51BE5D2FE22C
:1012F000020EBC25C16F000EBD21C26FBE51C125BB
:10130000C36F000EC221C46FE76FC3C6E6F60001CB
:10131000F1EC00F001C0C0F6020E0601BC25C16F61
:10132000000EBD21C26FBE51C125C36F000EC22188
:10133000C46F010EC025C56FC4C6CBF6C3C6CAF6BE
:10134000CC6F0001C3EC00F00601BE2BCED700D05D
:10135000060172EF16F00601BE6BBDC6E7F6BCC60D
:10136000E6F60001F1EC00F001C0BFF60601BF5146
:10137000BE5D53E2020EBC25C16F000EBD21C26FDF
:10138000BE51C125C36F000EC221C46FE76FC3C633
:10139000E6F60001F1EC00F001C0C0F60601C05312
:1013A0003AE0020EBC25C16F000EBD21C26FBE51D6
:1013B000C125C36F000EC221C46F010EC05DC56F91
:1013C000C4C6CBF6C3C6CAF6CC6F0001C3EC00F0AE
:1013D000010E0601BC25C16F000EBD21C26FE76F73
:1013E000C1C6E6F60001F1EC00F001C0C0F6010E46
:1013F0000601BC25C16F000EBD21C26F010EC025C4
:10140000C36FC2C6CBF6C1C6CAF6CC6F0001C3EC2F
:1014100000F003D00601BE2BAAD7060172EF16F02A
:101420000601C351640A00010FE0010A13E0030A38
:1014300017E0010A1BE0AF0A1FE0010A23E0030ADC
:1014400027E0010A2BE030D01C0E016E7C0E026EEC
:101450002ED02AD01D0E016E7C0E026E28D024D014
:101460001E0E016E7C0E026E22D01ED01F0E016E6B
:101470007C0E026E1CD018D0180E016E7C0E026E0F
:1014800016D012D0190E016E7C0E026E10D00CD048
:101490001A0E016E7C0E026E0AD006D01B0E016E73
:1014A0007C0E026E04D000D0000E016E026E000CA5
:1014B0000601C551070B006EC531016E01320132C4
:1014C0001F0E01160150C725E96E000EC821EA6EF5
:1014D000016A012A002A01D00136002EFDD7C65329
:1014E00003E00150EF1203D0011E0150EF1600017E
:1014F000000CBDC6E7F6BCC6E6F6F1EC00F001C094
:10150000BEF6010E0601BE5DBF6FBDC6CBF6BCC602
:10151000CAF6CC6F0001C3EC00F0020E0601BC2538
:10152000BF6F000EBD21C06FE76FBFC6E6F60001BA
:10153000F1EC00F001C0BEF6020E0601BC25BF6F43
:10154000000EBD21C06F010EBE25C16FC0C6CBF617
:10155000BFC6CAF6CC6F0001C3EC00F0010E060155
:10156000BC25BF6F000EBD21C06FE76FBFC6E6F69A
:101570000001F1EC00F001C0C0F601C0C3F650DF7D
:1015800002C0C2F601C0C1F6030E0601BC25C36F3E
:10159000000EBD21C46FE76FC3C6E6F60001F1EC93
:1015A00000F0015202E1000E01D0010EC1C6C5F6E5
:1015B0000601C66F0F0EC86F890EC76F000178DF76
:1015C000C1C6C5F60601C66B0F0EC86F920EC76F77
:1015D00000016EDF2AEF16F00601C551070B006E01
:1015E000C531016E013201321F0E01160150C625B0
:1015F000E96E000EC721EA6EEFCF01F0002A01D09C
:101600000132002EFDD700016BEF0BF0BDC6E7F6EF
:10161000BCC6E6F6F1EC00F001C0BEF6010E060114
:10162000BE5DBF6FBDC6CBF6BCC6CAF6CC6F0001AF
:10163000C3EC00F0020E0601BC25BF6F000EBD21F9
:10164000C06FE76FBFC6E6F60001F1EC00F001C025
:10165000BEF6020E0601BC25BF6F000EBD21C06F95
:10166000010EBE25C16FC0C6CBF6BFC6CAF6CC6F91
:101670000001C3EC00F0030E0601BC25BF6F000E95
:10168000BD21C06F010EBC25C16F000EBD21C26F10
:10169000E76FC1C6E6F60001F1EC00F001C0C2F64A
:1016A00001C0C3F6BDDE02C0C4F601C0C3F601C06E
:1016B000C5F6010E0601C66F0F0EC86F920EC76FFA
:1016C0000001F6DEC3C6C5F60F0E0601C76F800E19
:1016D000C66F000181D7000E01A0010E0601C46F84
:1016E000C0C6CBF6BFC6CAF6CC6F0001C3EC00F093
:1016F00039EF16F0D8905D34036A3E0FE96E000EA4
:101700000320EA6EC9C6ECFFED52C8C6EFFF5D2AA2
:10171000000C010E0601BC25C66F000EBD21C76F6F
:10172000E76FC6C6E6F60001F1EC00F001520FE0EB
:101730000B0E0601BC25C66F000EBD21C76FCB6F17
:10174000C6C6CAF6CC6B0001C3EC00F099D20B0EF2
:101750000601BC25C66F000EBD21C76FE76FC6C668
:10176000E6F60001F1EC00F00152D8A42FD1BDC67D
:10177000E7F6BCC6E6F6F1EC00F001C0C4F60601DF
:10178000C453D8B421D1010EC45DC66FBDC6CBF61B
:10179000BCC6CAF6CC6F0001C3EC00F0030E060114
:1017A000BC25C66F000EBD21C76FE76FC6C6E6F643
:1017B0000001F1EC00F00601CA6BC96BC86B01C0F7
:1017C000C7F601C0CFF6CC6BCD6BCE6B040EBC253B
:1017D000D06F000EBD21D16FE76FD0C6E6F60001D5
:1017E000F1EC00F00601D46BD36BD26B01C0D1F6E3
:1017F000D2C603F001C002F0006A016A0050CC11A9
:10180000D66F0150CD11D76F0250CE11D86FD25183
:10181000CF11D96F050EBC25DA6F000EBD21DB6F2D
:10182000E76FDAC6E6F60001F1EC00F00601DE6BC8
:10183000DD6BDC6B01C0DBF6DDC603F0DCC602F05D
:1018400001C001F0006A0050D611E06F0150D711BD
:10185000E16FDC51D811E26FDD51D911E36F060E53
:10186000BC25E46F000EBD21E56FE76FE4C6E6F628
:101870000001F1EC00F001C000F0016A026A036AA5
:1018800000500601E011BE6F0150E111BF6F025020
:10189000E211C06F0350E311C16FC1C6CFF6C0C6DD
:1018A000CEF6BFC6CDF6BEC6CCF6D36BD26BD16B2F
:1018B0000A0ED06F000102EC07F003C0C1F602C0AF
:1018C000C0F601C0BFF600C0BEF6070E0601BC257B
:1018D000C66F000EBD21C76FC1C600F0016A026A63
:1018E000036AC1C6C9F6CB6FC6C6CAF6C1C6CCF676
:1018F0000001C3EC00F0080E0601BC25C66F000E07
:10190000BD21C76FC0C600F0C1C601F0026A036AFC
:10191000C0C6C9F6CB6FC6C6CAF6C0C6CCF60001B3
:10192000C3EC00F0090E0601BC25C66F000EBD21F8
:10193000C76FBFC600F0C0C601F0C1C602F0036A9F
:10194000BFC6C9F6CB6FC6C6CAF6BFC6CCF6000185
:10195000C3EC00F00A0E0601BC25C66F000EBD21C7
:10196000C76FCB6FC6C6CAF6BEC6CCF60001C3ECC5
:1019700000F00B0E0601BC25C66F000EBD21C76F1F
:10198000CB6FC6C6CAF6010ECC6F0001C3EC00F0E7
:101990000C0E0601BC25C66F000EBD21C76FCB6FB4
:1019A000C6C6CAF681C0CCF60001C3EC00F0040E36
:1019B0000601BC5DC66F000EBD59C76FC96FC6C6B4
:1019C000C8F6000197DE06015CD1000181C0C3F6B4
:1019D0000C0E0601BC25C66F000EBD21C76FE76F58
:1019E000C6C6E6F60001F1EC00F001C0C5F606013E
:1019F000C551C35D04E3C551C35DC26F06D0640E1B
:101A0000D880C555D880C355C26FC253D8B42DD124
:101A10000C0EBC25C66F000EBD21C76FCB6FC6C6AE
:101A2000CAF681C0CCF60001C3EC00F0070E060137
:101A3000BC25C66F000EBD21C76FE76FC6C6E6F6B0
:101A40000001F1EC00F00601CA6BC96BC86B01C064
:101A5000C7F601C0CFF6CC6BCD6BCE6B080EBC25A4
:101A6000D06F000EBD21D16FE76FD0C6E6F6000142
:101A7000F1EC00F00601D46BD36BD26B01C0D1F650
:101A8000D2C603F001C002F0006A016A0050CC1116
:101A9000D66F0150CD11D76F0250CE11D86FD251F1
:101AA000CF11D96F090EBC25DA6F000EBD21DB6F97
:101AB000E76FDAC6E6F60001F1EC00F00601DE6B36
:101AC000DD6BDC6B01C0DBF6DDC603F0DCC602F0CB
:101AD00001C001F0006A0050D611E06F0150D7112B
:101AE000E16FDC51D811E26FDD51D911E36F0A0EBD
:101AF000BC25E46F000EBD21E56FE76FE4C6E6F696
:101B00000001F1EC00F001C000F0016A026A036A12
:101B100000500601E011BE6F0150E111BF6F02508D
:101B2000E211C06F0350E311C16FC15307E1C0530D
:101B300005E1BF5303E1C251BE5D07E3C251BE5F81
:101B4000000EBF5BC05BC15B04D0C16BC06BBF6BE1
:101B5000BE6B070EBC25C66F000EBD21C76FC1C688
:101B600000F0016A026A036AC1C6C9F6CB6FC6C635
:101B7000CAF6C1C6CCF60001C3EC00F0080E06019F
:101B8000BC25C66F000EBD21C76FC0C600F0C1C620
:101B900001F0026A036AC0C6C9F6CB6FC6C6CAF6B0
:101BA000C0C6CCF60001C3EC00F0090E0601BC254E
:101BB000C66F000EBD21C76FBFC600F0C0C601F0E2
:101BC000C1C602F0036ABFC6C9F6CB6FC6C6CAF665
:101BD000BFC6CCF60001C3EC00F00A0E0601BC251E
:101BE000C66F000EBD21C76FCB6FC6C6CAF6BEC694
:101BF000CCF60001C3EC00F00601BE5336E1BF5342
:101C000034E1C05332E1C15330E1020EBC25C66F4E
:101C1000000EBD21C76FE76FC6C6E6F60001F1EC06
:101C200000F001C0C4F6020E0601BC25C66F000E0E
:101C3000BD21C76F010EC425C86FC7C6CBF6C6C687
:101C4000CAF6CC6F0001C3EC00F00B0E0601BC25F8
:101C5000C66F000EBD21C76FCB6FC6C6CAF6CC6B70
:101C60000001C3EC00F00CD00601040EBC5DC66F91
:101C7000000EBD59C76FC96FC6C6C8F600013ADD70
:101C80000601060172EF16F0BDC6E7F6BCC6E6F621
:101C9000F1EC00F001C0BEF6010E0601BE5DC06FA2
:101CA000BDC6CBF6BCC6CAF6CC6F0001C3EC00F0D3
:101CB000020E0601BC25C06F000EBD21C16FE76F8B
:101CC000C0C6E6F60001F1EC00F001C0BFF6060167
:101CD000BE5323E0BF5321E0010EBC25C06F000EB0
:101CE000BD21C16FE76FC0C6E6F60001F1EC00F060
:101CF00001C0BEF6010E0601BC25C06F000EBD215D
:101D0000C16F010EBE25C26FC1C6CBF6C0C6CAF6F2
:101D1000CC6F0001C3EC00F00601060172EF16F073
:101D2000BDC6E7F6BCC6E6F6F1EC00F001C0BEF6B3
:101D3000BDC6CBF6BCC6CAF6010E0601CC6F0001CB
:101D4000C3EC00F0010E0601BC25BF6F000EBD21E3
:101D5000C06FE76FBFC6E6F60001F1EC00F001C00E
:101D6000BEF6010E0601BC25BF6F000EBD21C06F7F
:101D7000010EBE25C16FC0C6CBF6BFC6CAF6CC6F7A
:101D80000001C3EC00F062EF16F006015F5303E0C0
:101D9000000E016E35D0C751060821E3C86BC7514C
:101DA000C85D19E2036AC8515F0F016E060E032277
:101DB00003C0CAF6036AC851C525E96EC65103209F
:101DC000EA6EEFCFCBF6CAC6EAFF01C0E9FFCBC689
:101DD000EFFFC82BE4D7010E016E12D00FD0C96BF4
:101DE000C95100014FEC00F00601C92B006E0050F4
:101DF0009EA8FED7AD6E0E0EC95DF2E1000E016E1B
:101E00000001000CBDC6E7F6BCC6E6F6F1EC00F03A
:101E100001C0C4F60601C4532DE0010EC45DC56FB8
:101E2000BDC6CBF6BCC6CAF6CC6F0001C3EC00F051
:101E3000010E0601BC25C56F000EBD21C66FE76F00
:101E4000C5C6E6F60001F1EC00F001C0C4F6010ED3
:101E50000601BC25C56F000EBD21C66F010EC4254D
:101E6000C76FC6C6CBF6C5C6CAF6CC6F0001C3ECB9
:101E700000F00601020EBC25C56F000EBD21C66F25
:101E8000E76FC5C6E6F60001F1EC00F001C0C4F64C
:101E90000601C453D8B4B6D0020EBC25C56F000EDF
:101EA000BD21C66F010EC45DC76FC6C6CBF6C5C6E1
:101EB000CAF6CC6F0001C3EC00F0040E0601BC258D
:101EC000C56F000EBD21C66FE76FC5C6E6F60001FF
:101ED000F1EC00F001C0BEF6050E0601BC25C56F91
:101EE000000EBD21C66FE76FC5C6E6F60001F1EC36
:101EF00000F001C0BFF6060E0601BC25C56F000E3E
:101F0000BD21C66FE76FC5C6E6F60001F1EC00F033
:101F100001C0C0F6070E0601BC25C56F000EBD212D
:101F2000C66FE76FC5C6E6F60001F1EC00F001C030
:101F3000C1F6080E0601BC25C56F000EBD21C66F97
:101F4000E76FC5C6E6F60001F1EC00F001C0C2F68D
:101F5000090E0601BC25C56F000EBD21C66FE76FD7
:101F6000C5C6E6F60001F1EC00F001C0C3F6060EAE
:101F70000601C66FBE0EC56F060EC76F000105DFF6
:101F800001521DE1040E0601BC5DC56F000EBD5976
:101F9000C66FC96FC5C6C8F600017AEC0BF00A0E11
:101FA0000601BC25C56F000EBD21C66FCB6FC5C62F
:101FB000CAF6010ECC6F0001C3EC00F021D0030E75
:101FC0000601BC25C56F000EBD21C66FE76FC5C6F3
:101FD000E6F60001F1EC00F001C0C4F6030E0601C4
:101FE000BC25C56F000EBD21C66F010EC425C76F8D
:101FF000C6C6CBF6C5C6CAF6CC6F0001C3EC00F06E
:10200000B3D006010A0EBC25C56F000EBD21C66FF8
:10201000E76FC5C6E6F60001F1EC00F001C0C4F6BA
:102020000601C42DA2D0040EBC25C56F000EBD2133
:10203000C66FE76FC5C6E6F60001F1EC00F001C01F
:10204000BEF6050E0601BC25C56F000EBD21C66F8C
:10205000E76FC5C6E6F60001F1EC00F001C0BFF67F
:10206000060E0601BC25C56F000EBD21C66FE76FC9
:10207000C5C6E6F60001F1EC00F001C0C0F6070E9F
:102080000601BC25C56F000EBD21C66FE76FC5C632
:10209000E6F60001F1EC00F001C0C1F6080E060101
:1020A000BC25C56F000EBD21C66FE76FC5C6E6F63D
:1020B0000001F1EC00F001C0C2F6090E0601BC25DA
:1020C000C56F000EBD21C66FE76FC5C6E6F60001FD
:1020D000F1EC00F001C0C3F6060E0601C66FBE0E9D
:1020E000C56F060EC76F000150DE01520EE1040EEF
:1020F0000601BC5DC56F000EBD59C66FC96FC5C670
:10210000C8F600017AEC0BF02FD00A0E0601BC25B0
:10211000C56F000EBD21C66FCB6FC5C6CAF6CC6BAE
:102120000001C3EC00F0030E0601BC25C56F000ED4
:10213000BD21C66FE76FC5C6E6F60001F1EC00F001
:1021400001C0C4F6030E0601BC25C56F000EBD21FB
:10215000C66F010EC425C76FC6C6CBF6C5C6CAF684
:10216000CC6F0001C3EC00F00601060172EF16F01F
:1021700006017D837D917A5306E17B5304E1000ED5
:10218000016EAEEF16F07BC6E7F67AC6E6F6000102
:10219000F1EC00F00601BB6B01C0BAF601C0BDF660
:1021A000BC6B010E7A25BE6F000E7B21BF6FE76FFF
:1021B000BEC6E6F60001F1EC00F00601BC510110CC
:1021C000B56FBDC6B6F6B651FF08D8A0BEEF15F084
:1021D00005E1B551DB08D8A0BEEF15F0B26BB16BCD
:1021E000030EB525BA6F000EB621BB6FE76FBAC6F6
:1021F000E6F60001F1EC00F0015205E00601B26BD9
:10220000010EB16F7D81060E0601BB6F860EBA6F9F
:10221000000116EF02F006017DA3BDEF15F0B2C676
:10222000BBF6B1C6BAF6BD6B030EBC6F000123EF5F
:1022300002F002C0B4F601C0B3F60601B351B525F1
:10224000BA6FB451B621BB6FE76FBAC6E6F60001AC
:10225000F1EC00F001C0AEF60601B351B525BA6F3E
:10226000B451B621BB6F010EBA25BC6F000EBB2165
:10227000BD6FE76FBCC6E6F60001F1EC00F001C0EF
:10228000AFF60601B351B525BA6FB451B621BB6F95
:10229000020EBA25BC6F000EBB21BD6FE76FBCC636
:1022A000E6F60001F1EC00F001C0B0F60601B12B3A
:1022B000D8B4B22BAE51190A000156E0140A5DE001
:1022C000270AD8B467D03D0AD8B47BD01D0AD8B449
:1022D000CCD0100AD8B403D1020AD8B41FD1080A4E
:1022E000D8B46BD1010AD8B47ED1030AD8B49ED138
:1022F000010AD8B4BED1070AD8B4DED1010AD8B4D5
:10230000FED1030AD8B41ED2110AD8B43ED20F0AA5
:10231000D8B46DD20A0AD8B49CD2010AD8B4A9D2D2
:10232000070AD8B4B6D2010AD8B4C3D2210AD8B4A5
:10233000D0D22B0AD8B4DBD2280AD8B4DAD2020A17
:10234000D8B408D30D0AD8B436D30E0AD8B464D39F
:102350002F0AD8B492D3200AD8B4ABD3020AD8B487
:102360008AEF15F0B8EF15F00601BC6BBC51B01147
:10237000B16FAFC6B2F6BBEF15F0060E0601CD6F1A
:10238000860ECC6FB0C6CEF6000135EC02F0060129
:10239000BBEF15F0060E0601CD6F860ECC6FAFC6F3
:1023A000CEF6000135EC02F0060E0601CD6F860E6A
:1023B000CC6FB0C6CEF6000135EC02F00601BBEFE3
:1023C00015F00601AF5302E0AF2D22D0060ED56FF7
:1023D000860ED46F060ED76FB70ED66F00015CEC79
:1023E00002F00601B0517A25BA6F000E7B21BB6F57
:1023F000040EBA25BC6F000EBB21BD6FCB6FBCC6EF
:10240000CAF6B7C6CCF60001C3EC00F02CD006012A
:10241000B96BAF51B95D27E2060ED56F860ED46F4A
:10242000060ED76FB70ED66F00015CEC02F0060106
:10243000AF51B025D880B955FF0F7A25BD6F000E7A
:102440007B21BE6F040EBD25BF6F000EBE21C06F85
:10245000CB6FBFC6CAF6B7C6CCF60001C3EC00F01E
:102460000601B92BD6D7060186D3060E0601D56F15
:10247000860ED46F060ED76FB80ED66F00015CECD7
:1024800002F0015215E0060E0601D56F860ED46FDC
:10249000060ED76FB70ED66F00015CEC02F0060196
:1024A000BC6BBC51B811B16FB7C6B2F617D0000102
:1024B00006017DA112D0030EB525BA6F000EB6211C
:1024C000BB6FCB6FBAC6CAF6CC6B0001C3EC00F091
:1024D0000601B26BB16B7D9101D07D934CD3B2C636
:1024E000BAF60601BB6B060ECD6F860ECC6FB2C678
:1024F000CEF6000135EC02F0060E0601CD6F860E19
:10250000CC6FB1C6CEF6000135EC02F00601BC6B13
:10251000BC51B011B16FAFC6B2F62DD30601AF53A7
:1025200002E0AF2D20D0B0517A25BA6F000E7B218A
:10253000BB6F040EBA25BC6F000EBB21BD6FE76FE9
:10254000BCC6E6F60001F1EC00F001C0B7F6060EDD
:102550000601CD6F860ECC6FB7C6CEF6000135EC06
:1025600002F029D00601AFC6B7F6B96BB751B95D15
:1025700022E2B951B0257A25BB6F000E7B21BC6FDA
:10258000040EBB25BD6F000EBC21BE6FE76FBDC63C
:10259000E6F60001F1EC00F001C0B8F6060E060107
:1025A000CD6F860ECC6FB8C6CEF6000135EC02F0CA
:1025B0000601B92BDBD70601DED2060E0601D56F68
:1025C000860ED46F060ED76FB70ED66F00015CEC87
:1025D00002F00601B75306E0BC6BBC51B011B16FFD
:1025E000AFC6B2F6C8D2060E0601D56F860ED46FFE
:1025F000060ED76FB70ED66F00015CEC02F0060E28
:102600000601D56F860ED46F060ED76FB80ED66F43
:1026100000015CEC02F00601B851B75D06E1BC6B4D
:10262000BC51B011B16FAFC6B2F6A5D2060E06010D
:10263000D56F860ED46F060ED76FB70ED66F00011A
:102640005CEC02F0060E0601D56F860ED46F060E06
:10265000D76FB80ED66F00015CEC02F00601B751DF
:10266000B85D06E2BC6BBC51B011B16FAFC6B2F63B
:1026700082D2060E0601D56F860ED46F060ED76F76
:10268000B70ED66F00015CEC02F0060E0601D56FA6
:10269000860ED46F060ED76FB80ED66F00015CECB5
:1026A00002F00601B851B75D06E2BC6BBC51B01137
:1026B000B16FAFC6B2F65FD2060E0601D56F860EB9
:1026C000D46F060ED76FB70ED66F00015CEC02F028
:1026D000060E0601D56F860ED46F060ED76FB80EA4
:1026E000D66F00015CEC02F00601B851B75D06E35D
:1026F000BC6BBC51B011B16FAFC6B2F63CD2060E86
:102700000601D56F860ED46F060ED76FB70ED66F43
:1027100000015CEC02F0060E0601D56F860ED46F48
:10272000060ED76FB80ED66F00015CEC02F0060102
:10273000B751B85D06E3BC6BBC51B011B16FAFC609
:10274000B2F619D2060E0601D56F860ED46F060EAC
:10275000D76FB70ED66F00015CEC02F0060E0601D3
:10276000D56F860ED46F060ED76FB80ED66F0001E8
:102770005CEC02F00601B851B75D06E0BC6BBC51E1
:10278000B011B16FAFC6B2F6F6D1060E0601D56F25
:10279000860ED46F060ED76FB70ED66F00015CECB5
:1027A00002F0060E0601D56F860ED46F060ED76FA7
:1027B000B80ED66F00015CEC02F00601B7530DE0D5
:1027C000B8530BE0060ECD6F860ECC6F010ECE6FA8
:1027D000000135EC02F009D00601060ECD6F860E21
:1027E000CC6FCE6B000135EC02F00601C4D1060EB1
:1027F0000601D56F860ED46F060ED76FB70ED66F53
:1028000000015CEC02F0060E0601D56F860ED46F57
:10281000060ED76FB80ED66F00015CEC02F0060111
:10282000B75302E1B8530BE0060ECD6F860ECC6FA6
:10283000010ECE6F000135EC02F009D00601060E44
:10284000CD6F860ECC6FCE6B000135EC02F0060129
:1028500092D1060E0601BB6F860EBA6FAFC6BCF6EC
:10286000B0C6BDF6020EBE6F000178EC07F006019F
:1028700082D1060E0601BB6F860EBA6FAFC6BCF6DC
:10288000B0C6BDF6030EBE6F000178EC07F006017E
:1028900072D1060E0601BB6F860EBA6FAFC6BCF6CC
:1028A000B0C6BDF6040EBE6F000178EC07F006015D
:1028B00062D1060E0601BB6F860EBA6FAFC6BCF6BC
:1028C000B0C6BDF6050EBE6F000178EC07F006013C
:1028D00052D1060E0601BB6F860EBA6FAFC6BCF6AC
:1028E000B0C6BDF6240EBE6F000178EC07F00601FD
:1028F00042D1060E0601D56F860ED46F060ED76F35
:10290000B70ED66F00015CEC02F0060E0601D56F23
:10291000860ED46F060ED76FB80ED66F00015CEC32
:1029200002F00601B751B85D0BE3060ECD6F860EBF
:10293000CC6F010ECE6F000135EC02F009D006011C
:10294000060ECD6F860ECC6FCE6B000135EC02F01B
:10295000060111D1060E0601D56F860ED46F060E44
:10296000D76FB70ED66F00015CEC02F0060E0601C1
:10297000D56F860ED46F060ED76FB80ED66F0001D6
:102980005CEC02F00601B751B85D0BE2060ECD6FAC
:10299000860ECC6F010ECE6F000135EC02F009D02F
:1029A0000601060ECD6F860ECC6FCE6B000135ECA6
:1029B00002F00601E0D0060E0601D56F860ED46F38
:1029C000060ED76FB70ED66F00015CEC02F0060E54
:1029D0000601D56F860ED46F060ED76FB80ED66F70
:1029E00000015CEC02F00601B851B75D0BE3060E86
:1029F000CD6F860ECC6F010ECE6F000135EC02F06C
:102A000009D00601060ECD6F860ECC6FCE6B00018D
:102A100035EC02F00601AFD0060E0601D56F860E2A
:102A2000D46F060ED76FB70ED66F00015CEC02F0C4
:102A3000060E0601D56F860ED46F060ED76FB80E40
:102A4000D66F00015CEC02F00601B851B75D0BE1F6
:102A5000060ECD6F860ECC6F010ECE6F000135ECE9
:102A600002F009D00601060ECD6F860ECC6FCE6B3C
:102A7000000135EC02F006017ED0060E0601D56F8E
:102A8000860ED46F060ED76FB70ED66F00015CECC2
:102A900002F00601B75302E0000E01D0010ECE6F26
:102AA000060ECD6F860ECC6F000135EC02F00601EC
:102AB00062D0060E0601D56F860ED46F060ED76F54
:102AC000B70ED66F00015CEC02F0060E0601D56F62
:102AD000860ED46F060ED76FB80ED66F00015CEC71
:102AE00002F00601B851B75D0BE0060ECD6F860E01
:102AF000CC6F010ECE6F000135EC02F009D006015B
:102B0000060ECD6F860ECC6FCE6B000135EC02F059
:102B1000060131D00601AF51030828E1B051020887
:102B200025E1060ECE6F860ECD6F060ED06FAA0E73
:102B3000CF6F030ED16F0001C0EC02F0ADC6BDF641
:102B4000ACC6BCF6ABC6BBF6AAC6BAF62FEF09F008
:102B500001C0B7F6060E0601CD6F860ECC6FB7C664
:102B6000CEF6000135EC02F000D0060104D00001E1
:102B7000FFD7060100D00CEF11F0B4D0B5C600F0BD
:102B8000B6C603F0FF0EB65D05E1E00E005C000185
:102B90003AE00601FF0E035C05E1DF0E005C000178
:102BA0003FE00601FF0E035C05E1DE0E005C000164
:102BB00044E00601FF0E035C05E1DD0E005C000150
:102BC0004BE00601FF0E035C05E1E20E005C000134
:102BD00052E00601FF0E035C05E1E30E005C00011C
:102BE00057E00601FF0E035C05E1E10E005C000109
:102BF0005CE00601FF0E035C05E1E40E005C0001F1
:102C000063E006016FD0040E06017A25BA6F000E4C
:102C10007B21BB6FBD6FBAC6BCF600014EEF09F059
:102C2000040E06017A25BA6F000E7B21BB6FBD6FC3
:102C3000BAC6BCF60001ABEF09F0040E06017A2516
:102C4000BA6F000E7B21BB6FBD6FBAC6BCF6000128
:102C500079EF0AF0060146D0040E06017A25BA6F14
:102C6000000E7B21BB6FBD6FBAC6BCF6000106EF3C
:102C70000BF0060137D0040E06017A25BA6F000E5C
:102C80007B21BB6FBD6FBAC6BCF6000189EF0BF0AC
:102C9000040E06017A25BA6F000E7B21BB6FBD6F53
:102CA000BAC6BCF6000144EF0EF0040E06017A2508
:102CB000BA6F000E7B21BB6FBD6FBAC6BCF60001B8
:102CC00090EF0EF006010ED0040E06017A25BA6FC1
:102CD000000E7B21BB6FBD6FBAC6BCF6000102EFD0
:102CE0000FF00601D89000017D35036A5F0F016E79
:102CF000000E032201C0BAF6060103C0BBF6020EA5
:102D00007A25BC6F000E7B21BD6FE76FBCC6E6F66F
:102D10000001F1EC00F00601BE6B01C0BDF601C080
:102D2000C0F6BF6B030E7A25C16F000E7B21C26F08
:102D3000E76FC1C6E6F60001F1EC00F00601BF51F5
:102D40000110BBC6EAFFBAC6E9FFC0C6ECFFED52F0
:102D5000EF6E00017D2B000E016E06010001B9EF40
:102D60001AF0195005080AE11A50F10807E11B5042
:102D7000F10804E1196A010E016E02D0000E016E25
:102D800058EF17F09EAAFED7ABCF18F0AECF01F0E8
:102D900018A202D0AB98AB88E9EF16F01F9006019D
:102DA000876B866B9EBA11D0862BD8B4872B875140
:102DB00001080BE303E18651F30807E30400270E43
:102DC000006E002EFED70000EDD79EAA06D00001AF
:102DD000D9D7015007D006D006011F80000E016E22
:102DE000000100D0000C9EAA47D0D8DF0150AA08ED
:102DF00003E0000E016E42D01FA003D0000E016E52
:102E00003DD0CCDF0150550803E0000E016E36D0F6
:102E10001FA003D0000E016E31D00601836B8351D9
:102E200005081AE3036A8351190F016E000E03228D
:102E300001C084F603C085F60001B0DF85C6EAFF55
:102E400084C6E9FF01C0EFFF1FA003D0000E016E92
:102E500015D00601832BE3D70001A0DF01505508F0
:102E600003E0000E016E0AD01FA003D0000E016E19
:102E700005D0010E016E02D0000E016E000C010E95
:102E80000601845F0EE3060EEA6E840EE96EEF50D3
:102E900008E0020E006E002EFED700000400EF2EA8
:102EA000F8D70001000C0601815307E1000159D752
:102EB000015202E198DFFBD7060196948D8404004D
:102EC000110E836F2F0E846F0001D9DF0601832F4F
:102ED000F9D7AA0E9EA8FED7AD6E550E9EA8FED7B6
:102EE000AD6E826B825105080FE3036A82517F2524
:102EF000E96E80510320EA6EEFCF83F683519EA8DE
:102F0000FED7AD6E822BEED7550E9EA8FED7AD6EC6
:102F10000400030E836FE90E846F0001B0DF060129
:102F2000832FF9D796948D940001000C78C679F61A
:102F3000F10E06017A6F7B6F060E806F790E7F6F40
:102F4000010E816F0001AFDF3AEF1AF0D8907D35A6
:102F5000036A5F0FE96E000E0320EA6E90C6ECFF75
:102F6000ED528FC6EFFF7D2B7BEF18F00601E76B6C
:102F7000070EE66F0001F1EC00F00601906B01C056
:102F80008FF601C092F6916BE76B080EE66F0001B9
:102F9000F1EC00F0060191510110896F92C68AF69A
:102FA000895303E18A5301E1B6D08AC6E7F689C6A0
:102FB000E6F60001F1EC00F001C08DF606018D533C
:102FC000D8B4A9D08D2D01D097D086518D5DD8A4CD
:102FD00093D0010E89258F6F000E8A21906FE76FC5
:102FE0008FC6E6F60001F1EC00F00601916B01C01E
:102FF00090F601C093F6926B020E8925946F000E35
:103000008A21956FE76F94C6E6F60001F1EC00F0B7
:103010000601925101108B6F93C68CF68CC6E7F6B1
:103020008BC6E6F60001F1EC00F0015264E0040EFC
:1030300006018B27000E8C238E6B8E51040822E331
:103040008E518B258F6F000E8C21906F040E8F2573
:10305000916F000E9021926F010E8E25036A8725D5
:10306000E96E88510320EA6EEFCF94F692C6CBF654
:1030700091C6CAF694C6CCF60001C3EC00F0060176
:103080008E2BDBD7020E8B258F6F000E8C21906F5D
:10309000CB6F8FC6CAF6010ECC6F0001C3EC00F0F7
:1030A000020E06018B5F000E8C5B8CC6E7F68BC6AA
:1030B000E6F60001F1EC00F00601906B01C08FF61E
:1030C00001C092F6916B010E8B25936F000E8C213F
:1030D000946FE76F93C6E6F60001F1EC00F006018D
:1030E000915101108B6F92C68CF68CC690F68BC6F0
:1030F0008FF600012BD70601030E8927000E8A23C5
:103100008AC6E7F689C6E6F60001F1EC00F001C0D8
:103110008DF654D7060100012FEF19F00601CB6B95
:10312000040ECA6F010ECC6F0001C3EC00F0060163
:10313000CB6B050ECA6FCC6B0001C3EC00F006012F
:10314000CB6B060ECA6FCC6B0001C3EC00F07D6B3D
:103150007E6B5C6A5E6A0601E76B020EE66F000139
:10316000F1EC00F00601866B01C085F601C088F61F
:10317000876BE76B030EE66F0001F1EC00F00601D0
:10318000875101105F6E88C660F00001010E7D6FEF
:103190007F6F000C0601655310E0896B89510001B7
:1031A00064EC00F00601892B006E00509EA8FED74B
:1031B000AD6E0E0E895DF2E131D0875106081FE336
:1031C000886B8751885D19E2036A8851650F016E2B
:1031D000060E032203C08AF6036A88518525E96E2C
:1031E00086510320EA6EEFCF8BF68AC6EAFF01C054
:1031F000E9FF8BC6EFFF882BE4D710D00FD0896B87
:10320000895100014FEC00F00601892B006E00503F
:103210009EA8FED7AD6E0E0E895DF2E1000103EFB0
:103220001AF00601849178C6E9FF79C6EAFFEF50EB
:10323000C70817E278C6E9FF79C6EAFFEF50F90838
:1032400010E378C6E9FF79C6EAFFEFCF85F685C6B9
:1032500086F679C688F678C687F6000187D6D3D079
:10326000060178C6E9FF79C6EAFFEF5025082FE18D
:10327000450E726F010E7825E96E000E7921EA6E17
:10328000EF50876B020E7825E96E000E7921EA6E09
:10329000EF5087117A6F7A51050818E1250E726F89
:1032A000030E7825E96E000E7921EA6EEF50856FE6
:1032B000876B040E7825E96E000E7921EA6EEF50D7
:1032C0008711736F85C674F6766B756B9DD078C663
:1032D000E9FF79C6EAFFEF50650837E1725125082A
:1032E00034E17A6B7A51040825E3010E7A25036AEA
:1032F0007825E96E79510320EA6EEFCF86F674C621
:10330000CBF673C6CAF686C6CCF60001C3EC00F055
:10331000010E06017A25036A7825E96E79510320AA
:10332000EA6EEF507527000E7623732BD8B4742BFA
:103330007A2BD8D7E76B040EE66F0001F1EC00F0B2
:10334000012C01D0EBDE5FD0060178C6E9FF79C61B
:10335000EAFFEF5085083DE1725125083AE17A6BAA
:10336000010E7825E96E000E7921EA6EEF507A5D44
:1033700025E2020E7A25036A7825E96E7951032049
:10338000EA6EEFCF86F674C6CBF673C6CAF686C66B
:10339000CCF60001C3EC00F0020E06017A25036AA8
:1033A0007825E96E79510320EA6EEF507527000EFB
:1033B0007623732BD8B4742B7A2BD2D7E76B040EF9
:1033C000E66F0001F1EC00F0012C01D0A7DE1BD06C
:1033D000060178C6E9FF79C6EAFFEF50450814E117
:1033E000450E726FC50E7B6F76C67CF675C67DF690
:1033F0007E6B7F6B806B060E866F7B0E856F060E75
:10340000876F0001C7D60601000147EF1AF00601D9
:103410006D51050802E2010E6D6F00018151060138
:103420006B5D2BE081C06BF66C51050825E26C6B7F
:103430006D5105081BE16D2B65530BE0060E806F87
:10344000650E7F6F010E816F00012DDD0601656B3A
:103450000CD05F530AE0060E806F5F0E7F6F010E87
:10346000816F000120DD06015F6B06D06DC678F626
:1034700000015CD506016D2B6C2B0001B4DC015200
:1034800006E00601796B190E786F0001CAD6BCEF11
:103490001AF002EC00F0BDEF1AF0F86AD09E0D8E23
:1034A000EA6AE96AB8964D0EAF6EA60EAC6E900E43
:1034B000AB6EC150C00B0F09C16E070EB46E186A17
:1034C0007F6B06016E6B6F6B706B716B726B0001C3
:1034D00093EF00F0B4EF00F0B6EF00F0BCEF00F0B7
:1034E000D0EF00F07D6B7E6B5C6A5E6A06017781CF
:1034F00077A120D000017D517E5D06E17E6B7D6B62
:103500000601777116D00001D8907E35036A5F0FEF
:10351000E96E000E0320EA6EECCF79F6ED52EFCFA4
:1035200078F679C67BF678C67AF6FCEF00F07E2B4B
:10353000060120D05C505E5C08E15E6A5C6A7771CF
:103540000001EAEF01F016D00601D8905E34036A5C
:10355000200FE96E000E0320EA6EECCF79F6ED52F3
:10356000EFCF78F679C67BF678C67AF60001B8EF29
:1035700010F05E2A00014BD78CD70601B9D70300A3
:0200000400F00A
:1000000000000000000000000000000000000000F0
:1000100000000000000000000000000000000000E0
:080020000000000000000000D8
:020000040030CA
:0E000000240E1E1E0083810000C00FE00F4082
:00000001FF
;PIC18F4550
